:100000000C9461000C9473000C9473000C947300B6
:100010000C9473000C9473000C9473000C94730094
:100020000C9473000C9473000C9473000C94730084
:100030000C9473000C9473000C9473000C94730074
:100040000C949A000C9473000C9473000C9473003D
:100050000C9473000C9473000C9473000C94730054
:100060000C9473000C94730000000000250028001D
:100070002B0000000000240027002A0000000000E0
:1000800023002600290004040404040404040202DA
:100090000202020203030303030301020408102007
:1000A0004080010204081020010204081020000012
:1000B0000008000201000003040700000000000027
:1000C000000011241FBECFEFD8E0DEBFCDBF21E07E
:1000D000A0E0B1E001C01D92A930B207E1F70E9493
:1000E000E4000C94D0010C9400003FB7F894809188
:1000F000050190910601A0910701B091080126B574
:10010000A89B05C02F3F19F00196A11DB11D3FBF4F
:10011000BA2FA92F982F8827BC01CD01620F711D1E
:10012000811D911D42E0660F771F881F991F4A9518
:10013000D1F708951F920F920FB60F9211242F93AB
:100140003F938F939F93AF93BF93809101019091C1
:100150000201A0910301B09104013091000123E05C
:10016000230F2D3758F50196A11DB11D20930001D5
:100170008093010190930201A0930301B0930401C5
:100180008091050190910601A0910701B0910801AD
:100190000196A11DB11D8093050190930601A093C6
:1001A0000701B0930801BF91AF919F918F913F914B
:1001B0002F910F900FBE0F901F90189526E8230FD8
:1001C0000296A11DB11DD2CF789484B5826084BD02
:1001D00084B5816084BD85B5826085BD85B581604B
:1001E00085BD80916E00816080936E0010928100C9
:1001F0008091810082608093810080918100816084
:100200008093810080918000816080938000809144
:10021000B10084608093B1008091B00081608093D0
:10022000B00080917A00846080937A0080917A0097
:10023000826080937A0080917A00816080937A0056
:1002400080917A00806880937A001092C1008FEFCD
:100250008AB9C2EAD0E0FE0124910EE810E0F8016C
:1002600084918823C9F090E0880F991FFC01EE5813
:10027000FF4FA591B491FC01E859FF4F459154916E
:100280009FB7F8943C91822F809583238C93FA0139
:100290008081282B20839FBFFF24F394E12C36EB31
:1002A000C32E30E0D32EF6018491FE019491F80123
:1002B0002491222309F467C0882359F0833009F47C
:1002C0004BC008F03EC0813009F44CC0823009F4C4
:1002D0004DC0E22FF0E0EE0FFF1FE458FF4FA59155
:1002E000B4918C91982309F44EC0E1104EC0FF0CDC
:1002F000E12C09F452C0FBB80E9475002B013C01AF
:100300008AEF882E912CA12CB12C0E9475006419C3
:10031000750986099709683E734081059105A8F320
:10032000F1E08F1A9108A108B10828EE420E23E0EF
:10033000521E611C711C81149104A104B10429F79F
:10034000B2CF8730B1F08830D1F0843009F0C1CF1E
:10035000809180008F7D03C0809180008F77809393
:100360008000B7CF84B58F7784BDB3CF84B58F7D40
:10037000FBCF8091B0008F778093B000AACF80919F
:10038000B0008F7DF9CFE110B2CFF694EE24E39464
:10039000F110B1CF90E8F92EAECFFF24F394ABCF9C
:0403A000F894FFCFFF
:00000001FF
