:100000000C9435000C945D000C945D000C945D0024
:100010000C945D000C945D000C945D000C945D00EC
:100020000C945D000C945D000C945D000C945D00DC
:100030000C945D000C945D000C945D000C945D00CC
:100040000C946C010C945D000C94DC010C94B601D2
:100050000C945D000C945D000C945D000C945D00AC
:100060000C945D000C945D00D40211241FBECFEFF0
:10007000D8E0DEBFCDBF11E0A0E0B1E0E2E1F6E004
:1000800002C005900D92AA32B107D9F721E0AAE289
:10009000B1E001C01D92A13DB207E1F710E0C5E358
:1000A000D0E004C02197FE010E940103C433D107B0
:1000B000C9F70E940E020C9407030C940000AF9243
:1000C000BF92CF92DF92EF92FF920F931F93CF9345
:1000D000DF936C017B018B01040F151FEB015E01A7
:1000E000AE18BF08C017D10759F06991D601ED913C
:1000F000FC910190F081E02DC6010995892B79F7DB
:10010000C501DF91CF911F910F91FF90EF90DF908C
:10011000CF90BF90AF900895FC01538D448D252F53
:1001200030E0842F90E0821B930B541710F0CF9691
:10013000089501970895FC01918D828D981761F0C3
:10014000A28DAE0FBF2FB11D5D968C91928D9F5FDA
:100150009F73928F90E008958FEF9FEF0895FC01B9
:10016000918D828D981731F0828DE80FF11D858D6C
:1001700090E008958FEF9FEF0895FC01918D228DFF
:10018000892F90E0805C9F4F821B91098F73992784
:1001900008958BE291E00E94BD0021E0892B09F4D3
:1001A00020E0822F089580E090E0892B29F00E94C2
:1001B000C90081110C9400000895FC01A48DA80FC2
:1001C000B92FB11DA35ABF4F2C91848D90E0019699
:1001D0008F739927848FA689B7892C93A089B189B9
:1001E0008C91837080648C93938D848D981306C05A
:1001F0000288F389E02D80818F7D80830895EF92BE
:10020000FF920F931F93CF93DF93EC0181E0888FD0
:100210009B8D8C8D98131AC0E889F989808185FFA0
:1002200015C09FB7F894EE89FF896083E889F98942
:1002300080818370806480839FBF81E090E0DF9144
:10024000CF911F910F91FF90EF900895F62E0B8D97
:1002500010E00F5F1F4F0F731127E02E8C8D8E1152
:100260000CC00FB607FCFACFE889F989808185FFB9
:10027000F5CFCE010E94DD00F1CFEB8DEC0FFD2F0D
:10028000F11DE35AFF4FF0829FB7F8940B8FEA8974
:10029000FB8980818062CFCFCF93DF93EC01888D83
:1002A0008823B9F0AA89BB89E889F9898C9185FDF1
:1002B00003C0808186FD0DC00FB607FCF7CF8C917F
:1002C00085FFF2CF808185FFEDCFCE010E94DD005A
:1002D000E9CFDF91CF9108951F920F920FB60F9241
:1002E00011242F933F938F939F93AF93BF9380914C
:1002F000CD019091CE01A091CF01B091D00130916C
:10030000CC0123E0230F2D3758F50196A11DB11D17
:100310002093CC018093CD019093CE01A093CF0187
:10032000B093D0018091C8019091C901A091CA01F8
:10033000B091CB010196A11DB11D8093C80190938E
:10034000C901A093CA01B093CB01BF91AF919F9116
:100350008F913F912F910F900FBE0F901F90189586
:1003600026E8230F0296A11DB11DD2CF1F920F9236
:100370000FB60F9211242F933F934F935F936F9378
:100380007F938F939F93AF93BF93EF93FF938BE2F2
:1003900091E00E94DD00FF91EF91BF91AF919F919D
:1003A0008F917F916F915F914F913F912F910F901E
:1003B0000FBE0F901F9018951F920F920FB60F92BD
:1003C00011242F938F939F93EF93FF93E0913B0121
:1003D000F0913C018081E0914101F091420182FD68
:1003E0001BC09081809144018F5F8F7320914501E4
:1003F000821741F0E0914401F0E0E55DFE4F958FFA
:1004000080934401FF91EF919F918F912F910F90D5
:100410000FBE0F901F9018958081F4CF789484B50B
:10042000826084BD84B5816084BD85B5826085BDF0
:1004300085B5816085BD80916E00816080936E007E
:100440001092810080918100826080938100809170
:100450008100816080938100809180008160809321
:1004600080008091B10084608093B1008091B000E1
:1004700081608093B00080917A00846080937A00DC
:1004800080917A00826080937A0080917A00816006
:1004900080937A0080917A00806880937A0010922D
:1004A000C1008FE084B9E0913B01F0913C0182E012
:1004B0008083E0913701F09138011082E091390199
:1004C000F0913A018FEC808310924301E0913F015B
:1004D000F091400186E08083E0913D01F0913E0182
:1004E000808180618083E0913D01F0913E018081B7
:1004F00088608083E0913D01F0913E0180818068B9
:100500008083E0913D01F0913E0180818F7D808369
:1005100014E002E0FF24F39488E0E82EC0E0D0E08D
:100520008BE291E00E94BD00181619061CF58BE2C3
:1005300091E00E949B0080932A0143E150E062E138
:1005400071E08BE291E00E945F0060912A018BE2F2
:1005500091E00E94FF0042E050E066E271E08BE231
:1005600091E00E945F0080912A018736B9F05CF427
:10057000823681F02097A1F20E94C900882381F27F
:100580000E940000CDCF823761F0893799F785B19D
:100590008F2502C085B18E2585B9ECCF85B1812725
:1005A000FBCF85B18027F8CFEBE2F1E01382128216
:1005B00088EE93E0A0E0B0E084839583A683B783C0
:1005C00084E091E09183808385EC90E09587848737
:1005D00084EC90E09787868780EC90E0918B808B0D
:1005E00081EC90E0938B828B82EC90E0958B848BF6
:1005F00086EC90E0978B868B118E128E138E148E64
:100600000895EE0FFF1F0590F491E02D0994F894E2
:02061000FFCF1A
:1006120000000000FF005F008C004C01BD009B0049
:10062200AF004361726163746572207265636962CF
:0A06320069646F3A20000D0A000011
:00000001FF
